{
  "_format": "hh-sol-artifact-1",
  "contractName": "CryptoLottery",
  "sourceName": "contracts/CryptoLottery.sol",
  "abi": [
    {
      "inputs": [],
      "stateMutability": "payable",
      "type": "constructor"
    },
    {
      "anonymous": false,
      "inputs": [
        {
          "indexed": false,
          "internalType": "uint256",
          "name": "timestamp",
          "type": "uint256"
        }
      ],
      "name": "DrawStarted",
      "type": "event"
    },
    {
      "anonymous": false,
      "inputs": [
        {
          "indexed": true,
          "internalType": "address",
          "name": "previousOwner",
          "type": "address"
        },
        {
          "indexed": true,
          "internalType": "address",
          "name": "newOwner",
          "type": "address"
        }
      ],
      "name": "OwnershipTransferred",
      "type": "event"
    },
    {
      "anonymous": false,
      "inputs": [
        {
          "indexed": true,
          "internalType": "address",
          "name": "from",
          "type": "address"
        },
        {
          "indexed": false,
          "internalType": "uint256",
          "name": "timestamp",
          "type": "uint256"
        }
      ],
      "name": "TicketPurchased",
      "type": "event"
    },
    {
      "anonymous": false,
      "inputs": [
        {
          "indexed": true,
          "internalType": "address",
          "name": "player",
          "type": "address"
        },
        {
          "indexed": false,
          "internalType": "uint256",
          "name": "timestamp",
          "type": "uint256"
        }
      ],
      "name": "WinnerChosen",
      "type": "event"
    },
    {
      "inputs": [
        {
          "internalType": "uint16",
          "name": "_position",
          "type": "uint16"
        }
      ],
      "name": "calculateWinnings",
      "outputs": [
        {
          "internalType": "uint256",
          "name": "",
          "type": "uint256"
        }
      ],
      "stateMutability": "view",
      "type": "function"
    },
    {
      "inputs": [],
      "name": "getContractBalance",
      "outputs": [
        {
          "internalType": "uint256",
          "name": "",
          "type": "uint256"
        }
      ],
      "stateMutability": "payable",
      "type": "function"
    },
    {
      "inputs": [],
      "name": "getPrizePool",
      "outputs": [
        {
          "internalType": "uint256",
          "name": "",
          "type": "uint256"
        }
      ],
      "stateMutability": "view",
      "type": "function"
    },
    {
      "inputs": [],
      "name": "getTicketPrice",
      "outputs": [
        {
          "internalType": "uint256",
          "name": "",
          "type": "uint256"
        }
      ],
      "stateMutability": "view",
      "type": "function"
    },
    {
      "inputs": [],
      "name": "getTickets",
      "outputs": [
        {
          "internalType": "address[]",
          "name": "",
          "type": "address[]"
        }
      ],
      "stateMutability": "view",
      "type": "function"
    },
    {
      "inputs": [],
      "name": "getWinners",
      "outputs": [
        {
          "components": [
            {
              "internalType": "address",
              "name": "player",
              "type": "address"
            },
            {
              "internalType": "uint256",
              "name": "timestamp",
              "type": "uint256"
            },
            {
              "internalType": "uint256",
              "name": "winnings",
              "type": "uint256"
            }
          ],
          "internalType": "struct CryptoLottery.Winner[]",
          "name": "",
          "type": "tuple[]"
        }
      ],
      "stateMutability": "view",
      "type": "function"
    },
    {
      "inputs": [],
      "name": "owner",
      "outputs": [
        {
          "internalType": "address",
          "name": "",
          "type": "address"
        }
      ],
      "stateMutability": "view",
      "type": "function"
    },
    {
      "inputs": [
        {
          "internalType": "address payable",
          "name": "player",
          "type": "address"
        },
        {
          "internalType": "uint256",
          "name": "prizeAmount",
          "type": "uint256"
        }
      ],
      "name": "payWinner",
      "outputs": [],
      "stateMutability": "payable",
      "type": "function"
    },
    {
      "inputs": [],
      "name": "purchaseTicket",
      "outputs": [],
      "stateMutability": "payable",
      "type": "function"
    },
    {
      "inputs": [],
      "name": "renounceOwnership",
      "outputs": [],
      "stateMutability": "nonpayable",
      "type": "function"
    },
    {
      "inputs": [],
      "name": "resetTickets",
      "outputs": [],
      "stateMutability": "nonpayable",
      "type": "function"
    },
    {
      "inputs": [
        {
          "internalType": "uint256",
          "name": "newTicketPrice",
          "type": "uint256"
        }
      ],
      "name": "setTicketPrice",
      "outputs": [],
      "stateMutability": "nonpayable",
      "type": "function"
    },
    {
      "inputs": [],
      "name": "startDraw",
      "outputs": [],
      "stateMutability": "nonpayable",
      "type": "function"
    },
    {
      "inputs": [
        {
          "internalType": "address",
          "name": "newOwner",
          "type": "address"
        }
      ],
      "name": "transferOwnership",
      "outputs": [],
      "stateMutability": "nonpayable",
      "type": "function"
    },
    {
      "inputs": [],
      "name": "withdrawBalance",
      "outputs": [],
      "stateMutability": "payable",
      "type": "function"
    }
  ],
  "bytecode": "0x6080604052662386f26fc10000600155600a6002556050600355620000396200002d6200006e60201b60201c565b6200007660201b60201c565b6200006860405180606001604052806022815260200162001e05602291396200013a60201b62000e9c1760201c565b620002ce565b600033905090565b60008060009054906101000a900473ffffffffffffffffffffffffffffffffffffffff169050816000806101000a81548173ffffffffffffffffffffffffffffffffffffffff021916908373ffffffffffffffffffffffffffffffffffffffff1602179055508173ffffffffffffffffffffffffffffffffffffffff168173ffffffffffffffffffffffffffffffffffffffff167f8be0079c531659141344cd1fd0a4f28419497f9722a3daafe3b4186f6b6457e060405160405180910390a35050565b620001da8160405160240162000151919062000247565b6040516020818303038152906040527f41304fac000000000000000000000000000000000000000000000000000000007bffffffffffffffffffffffffffffffffffffffffffffffffffffffff19166020820180517bffffffffffffffffffffffffffffffffffffffffffffffffffffffff8381831617835250505050620001dd60201b60201c565b50565b60008151905060006a636f6e736f6c652e6c6f679050602083016000808483855afa5050505050565b600062000213826200026b565b6200021f818562000276565b93506200023181856020860162000287565b6200023c81620002bd565b840191505092915050565b6000602082019050818103600083015262000263818462000206565b905092915050565b600081519050919050565b600082825260208201905092915050565b60005b83811015620002a75780820151818401526020810190506200028a565b83811115620002b7576000848401525b50505050565b6000601f19601f8301169050919050565b611b2780620002de6000396000f3fe6080604052600436106100e85760003560e01c80636f9fb98a1161008a5780638da5cb5b116100595780638da5cb5b1461022a578063961d34d714610255578063df15c37e14610292578063f2fde38b146102bd576100e8565b80636f9fb98a1461019f578063715018a6146101bd57806387bb7ae0146101d4578063884bf67c146101ff576100e8565b80634e958d05116100c65780634e958d05146101375780634ed02622146101535780635277f28e1461017e5780635fd8c71014610195576100e8565b806315981650146100ed57806321846c76146101165780632ae168a614610120575b600080fd5b3480156100f957600080fd5b50610114600480360381019061010f91906111e6565b6102e6565b005b61011e61036c565b005b34801561012c57600080fd5b50610135610463565b005b610151600480360381019061014c9190611181565b610639565b005b34801561015f57600080fd5b50610168610851565b6040516101759190611505565b60405180910390f35b34801561018a57600080fd5b506101936108df565b005b61019d6109e3565b005b6101a7610aa8565b6040516101b4919061164b565b60405180910390f35b3480156101c957600080fd5b506101d2610b2c565b005b3480156101e057600080fd5b506101e9610bb4565b6040516101f6919061164b565b60405180910390f35b34801561020b57600080fd5b50610214610bbe565b604051610221919061164b565b60405180910390f35b34801561023657600080fd5b5061023f610bdf565b60405161024c91906114ea565b60405180910390f35b34801561026157600080fd5b5061027c600480360381019061027791906111bd565b610c08565b604051610289919061164b565b60405180910390f35b34801561029e57600080fd5b506102a7610cdb565b6040516102b49190611527565b60405180910390f35b3480156102c957600080fd5b506102e460048036038101906102df9190611158565b610da4565b005b6102ee610f35565b73ffffffffffffffffffffffffffffffffffffffff1661030c610bdf565b73ffffffffffffffffffffffffffffffffffffffff1614610362576040517f08c379a0000000000000000000000000000000000000000000000000000000008152600401610359906115cb565b60405180910390fd5b8060018190555050565b60015434146103b0576040517f08c379a00000000000000000000000000000000000000000000000000000000081526004016103a79061160b565b60405180910390fd5b6004339080600181540180825580915050600190039060005260206000200160009091909190916101000a81548173ffffffffffffffffffffffffffffffffffffffff021916908373ffffffffffffffffffffffffffffffffffffffff1602179055503373ffffffffffffffffffffffffffffffffffffffff167f0668f5b446eb814fe35b3206f43f14bd8567ba04ddaf7a3ee56516929ab22ccb42604051610459919061164b565b60405180910390a2565b61046b610f35565b73ffffffffffffffffffffffffffffffffffffffff16610489610bdf565b73ffffffffffffffffffffffffffffffffffffffff16146104df576040517f08c379a00000000000000000000000000000000000000000000000000000000081526004016104d6906115cb565b60405180910390fd5b6002546004805490501015610529576040517f08c379a0000000000000000000000000000000000000000000000000000000008152600401610520906115ab565b60405180910390fd5b6000471161056c576040517f08c379a00000000000000000000000000000000000000000000000000000000081526004016105639061162b565b60405180910390fd5b7fe4873708e4fc11619230dd3506a5f7cb96ece9d6d7b1c2ea9e7c46dac3f10baa4260405161059b919061164b565b60405180910390a160006004805490506105b3610f3d565b6105bd9190611818565b9050610636600482815481106105fc577f4e487b7100000000000000000000000000000000000000000000000000000000600052603260045260246000fd5b9060005260206000200160009054906101000a900473ffffffffffffffffffffffffffffffffffffffff166106316001610c08565b610639565b50565b610641610f35565b73ffffffffffffffffffffffffffffffffffffffff1661065f610bdf565b73ffffffffffffffffffffffffffffffffffffffff16146106b5576040517f08c379a00000000000000000000000000000000000000000000000000000000081526004016106ac906115cb565b60405180910390fd5b4781106106f7576040517f08c379a00000000000000000000000000000000000000000000000000000000081526004016106ee9061158b565b60405180910390fd5b8173ffffffffffffffffffffffffffffffffffffffff167fc5d1e2a43e1052756e222065802cb80a029bfaf7045b3df42c5c87b92e48de414260405161073d919061164b565b60405180910390a28173ffffffffffffffffffffffffffffffffffffffff166108fc829081150290604051600060405180830381858888f1935050505015801561078b573d6000803e3d6000fd5b50600560405180606001604052803373ffffffffffffffffffffffffffffffffffffffff16815260200142815260200183815250908060018154018082558091505060019003906000526020600020906003020160009091909190915060008201518160000160006101000a81548173ffffffffffffffffffffffffffffffffffffffff021916908373ffffffffffffffffffffffffffffffffffffffff1602179055506020820151816001015560408201518160020155505061084d6108df565b5050565b606060048054806020026020016040519081016040528092919081815260200182805480156108d557602002820191906000526020600020905b8160009054906101000a900473ffffffffffffffffffffffffffffffffffffffff1673ffffffffffffffffffffffffffffffffffffffff168152602001906001019080831161088b575b5050505050905090565b6108e7610f35565b73ffffffffffffffffffffffffffffffffffffffff16610905610bdf565b73ffffffffffffffffffffffffffffffffffffffff161461095b576040517f08c379a0000000000000000000000000000000000000000000000000000000008152600401610952906115cb565b60405180910390fd5b600067ffffffffffffffff81111561099c577f4e487b7100000000000000000000000000000000000000000000000000000000600052604160045260246000fd5b6040519080825280602002602001820160405280156109ca5781602001602082028036833780820191505090505b50600490805190602001906109e092919061105d565b50565b6109eb610f35565b73ffffffffffffffffffffffffffffffffffffffff16610a09610bdf565b73ffffffffffffffffffffffffffffffffffffffff1614610a5f576040517f08c379a0000000000000000000000000000000000000000000000000000000008152600401610a56906115cb565b60405180910390fd5b3373ffffffffffffffffffffffffffffffffffffffff166108fc479081150290604051600060405180830381858888f19350505050158015610aa5573d6000803e3d6000fd5b50565b6000610ab2610f35565b73ffffffffffffffffffffffffffffffffffffffff16610ad0610bdf565b73ffffffffffffffffffffffffffffffffffffffff1614610b26576040517f08c379a0000000000000000000000000000000000000000000000000000000008152600401610b1d906115cb565b60405180910390fd5b47905090565b610b34610f35565b73ffffffffffffffffffffffffffffffffffffffff16610b52610bdf565b73ffffffffffffffffffffffffffffffffffffffff1614610ba8576040517f08c379a0000000000000000000000000000000000000000000000000000000008152600401610b9f906115cb565b60405180910390fd5b610bb26000610f70565b565b6000600154905090565b6000600354606447610bd091906116f4565b610bda9190611725565b905090565b60008060009054906101000a900473ffffffffffffffffffffffffffffffffffffffff16905090565b600060018261ffff1610158015610c24575060038261ffff1611155b610c63576040517f08c379a0000000000000000000000000000000000000000000000000000000008152600401610c5a906115eb565b60405180910390fd5b600060018361ffff161415610c7b5760329050610cb3565b60028361ffff161415610c915760149050610cb2565b60038361ffff161415610ca757600a9050610cb1565b6000915050610cd6565b5b5b806064610cbe610bbe565b610cc891906116f4565b610cd29190611725565b9150505b919050565b60606005805480602002602001604051908101604052809291908181526020016000905b82821015610d9b57838290600052602060002090600302016040518060600160405290816000820160009054906101000a900473ffffffffffffffffffffffffffffffffffffffff1673ffffffffffffffffffffffffffffffffffffffff1673ffffffffffffffffffffffffffffffffffffffff1681526020016001820154815260200160028201548152505081526020019060010190610cff565b50505050905090565b610dac610f35565b73ffffffffffffffffffffffffffffffffffffffff16610dca610bdf565b73ffffffffffffffffffffffffffffffffffffffff1614610e20576040517f08c379a0000000000000000000000000000000000000000000000000000000008152600401610e17906115cb565b60405180910390fd5b600073ffffffffffffffffffffffffffffffffffffffff168173ffffffffffffffffffffffffffffffffffffffff161415610e90576040517f08c379a0000000000000000000000000000000000000000000000000000000008152600401610e879061156b565b60405180910390fd5b610e9981610f70565b50565b610f3281604051602401610eb09190611549565b6040516020818303038152906040527f41304fac000000000000000000000000000000000000000000000000000000007bffffffffffffffffffffffffffffffffffffffffffffffffffffffff19166020820180517bffffffffffffffffffffffffffffffffffffffffffffffffffffffff8381831617835250505050611034565b50565b600033905090565b60004442604051602001610f529291906114be565b6040516020818303038152906040528051906020012060001c905090565b60008060009054906101000a900473ffffffffffffffffffffffffffffffffffffffff169050816000806101000a81548173ffffffffffffffffffffffffffffffffffffffff021916908373ffffffffffffffffffffffffffffffffffffffff1602179055508173ffffffffffffffffffffffffffffffffffffffff168173ffffffffffffffffffffffffffffffffffffffff167f8be0079c531659141344cd1fd0a4f28419497f9722a3daafe3b4186f6b6457e060405160405180910390a35050565b60008151905060006a636f6e736f6c652e6c6f679050602083016000808483855afa5050505050565b8280548282559060005260206000209081019282156110d6579160200282015b828111156110d55782518260006101000a81548173ffffffffffffffffffffffffffffffffffffffff021916908373ffffffffffffffffffffffffffffffffffffffff1602179055509160200191906001019061107d565b5b5090506110e391906110e7565b5090565b5b808211156111005760008160009055506001016110e8565b5090565b60008135905061111381611a95565b92915050565b60008135905061112881611aac565b92915050565b60008135905061113d81611ac3565b92915050565b60008135905061115281611ada565b92915050565b60006020828403121561116a57600080fd5b600061117884828501611104565b91505092915050565b6000806040838503121561119457600080fd5b60006111a285828601611119565b92505060206111b385828601611143565b9150509250929050565b6000602082840312156111cf57600080fd5b60006111dd8482850161112e565b91505092915050565b6000602082840312156111f857600080fd5b600061120684828501611143565b91505092915050565b600061121b838361123f565b60208301905092915050565b60006112338383611447565b60608301905092915050565b6112488161177f565b82525050565b6112578161177f565b82525050565b600061126882611686565b61127281856116c1565b935061127d83611666565b8060005b838110156112ae578151611295888261120f565b97506112a0836116a7565b925050600181019050611281565b5085935050505092915050565b60006112c682611691565b6112d081856116d2565b93506112db83611676565b8060005b8381101561130c5781516112f38882611227565b97506112fe836116b4565b9250506001810190506112df565b5085935050505092915050565b60006113248261169c565b61132e81856116e3565b935061133e8185602086016117db565b611347816118a7565b840191505092915050565b600061135f6026836116e3565b915061136a826118b8565b604082019050919050565b60006113826030836116e3565b915061138d82611907565b604082019050919050565b60006113a56033836116e3565b91506113b082611956565b604082019050919050565b60006113c86020836116e3565b91506113d3826119a5565b602082019050919050565b60006113eb602c836116e3565b91506113f6826119ce565b604082019050919050565b600061140e601d836116e3565b915061141982611a1d565b602082019050919050565b60006114316033836116e3565b915061143c82611a46565b604082019050919050565b60608201600082015161145d600085018261123f565b5060208201516114706020850182611489565b5060408201516114836040850182611489565b50505050565b611492816117d1565b82525050565b6114a1816117d1565b82525050565b6114b86114b3826117d1565b61180e565b82525050565b60006114ca82856114a7565b6020820191506114da82846114a7565b6020820191508190509392505050565b60006020820190506114ff600083018461124e565b92915050565b6000602082019050818103600083015261151f818461125d565b905092915050565b6000602082019050818103600083015261154181846112bb565b905092915050565b600060208201905081810360008301526115638184611319565b905092915050565b6000602082019050818103600083015261158481611352565b9050919050565b600060208201905081810360008301526115a481611375565b9050919050565b600060208201905081810360008301526115c481611398565b9050919050565b600060208201905081810360008301526115e4816113bb565b9050919050565b60006020820190508181036000830152611604816113de565b9050919050565b6000602082019050818103600083015261162481611401565b9050919050565b6000602082019050818103600083015261164481611424565b9050919050565b60006020820190506116606000830184611498565b92915050565b6000819050602082019050919050565b6000819050602082019050919050565b600081519050919050565b600081519050919050565b600081519050919050565b6000602082019050919050565b6000602082019050919050565b600082825260208201905092915050565b600082825260208201905092915050565b600082825260208201905092915050565b60006116ff826117d1565b915061170a836117d1565b92508261171a57611719611878565b5b828204905092915050565b6000611730826117d1565b915061173b836117d1565b9250817fffffffffffffffffffffffffffffffffffffffffffffffffffffffffffffffff048311821515161561177457611773611849565b5b828202905092915050565b600061178a826117b1565b9050919050565b600061179c826117b1565b9050919050565b600061ffff82169050919050565b600073ffffffffffffffffffffffffffffffffffffffff82169050919050565b6000819050919050565b60005b838110156117f95780820151818401526020810190506117de565b83811115611808576000848401525b50505050565b6000819050919050565b6000611823826117d1565b915061182e836117d1565b92508261183e5761183d611878565b5b828206905092915050565b7f4e487b7100000000000000000000000000000000000000000000000000000000600052601160045260246000fd5b7f4e487b7100000000000000000000000000000000000000000000000000000000600052601260045260246000fd5b6000601f19601f8301169050919050565b7f4f776e61626c653a206e6577206f776e657220697320746865207a65726f206160008201527f6464726573730000000000000000000000000000000000000000000000000000602082015250565b7f57696e6e65722063616e6e6f742077696e206d6f7265207468616e207468652060008201527f636f6e74726163742062616c616e636500000000000000000000000000000000602082015250565b7f5468657265206e6565647320746f206265206174206c6561737420313020706c60008201527f617965727320746f2072756e2061206472617700000000000000000000000000602082015250565b7f4f776e61626c653a2063616c6c6572206973206e6f7420746865206f776e6572600082015250565b7f57696e6e696e6720706f736974696f6e73206d7573742062652077697468696e60008201527f206120312d332072616e67650000000000000000000000000000000000000000602082015250565b7f596f75206d7573742070617920746865207469636b6574207072696365000000600082015250565b7f4120647261772063616e6e6f742062652072756e207768656e2074686520636f60008201527f6e74726163742062616c616e6365206973203000000000000000000000000000602082015250565b611a9e8161177f565b8114611aa957600080fd5b50565b611ab581611791565b8114611ac057600080fd5b50565b611acc816117a3565b8114611ad757600080fd5b50565b611ae3816117d1565b8114611aee57600080fd5b5056fea2646970667358221220568908d572d3d3b956aa2960f84123080fb7e5d75cb96d306e6d87909d2d043e64736f6c63430008040033436f6e7472616374206d6574686f6420636f6e7374727563746f722063616c6c6564",
  "linkReferences": {},
  "deployedLinkReferences": {}
}