{
  "_format": "hh-sol-artifact-1",
  "contractName": "CryptoLottery",
  "sourceName": "contracts/CryptoLottery.sol",
  "abi": [
    {
      "inputs": [],
      "stateMutability": "payable",
      "type": "constructor"
    },
    {
      "anonymous": false,
      "inputs": [
        {
          "indexed": false,
          "internalType": "uint256",
          "name": "timestamp",
          "type": "uint256"
        }
      ],
      "name": "DrawStarted",
      "type": "event"
    },
    {
      "anonymous": false,
      "inputs": [
        {
          "indexed": true,
          "internalType": "address",
          "name": "previousOwner",
          "type": "address"
        },
        {
          "indexed": true,
          "internalType": "address",
          "name": "newOwner",
          "type": "address"
        }
      ],
      "name": "OwnershipTransferred",
      "type": "event"
    },
    {
      "anonymous": false,
      "inputs": [
        {
          "indexed": true,
          "internalType": "address",
          "name": "from",
          "type": "address"
        },
        {
          "indexed": false,
          "internalType": "uint256",
          "name": "timestamp",
          "type": "uint256"
        }
      ],
      "name": "TicketPurchased",
      "type": "event"
    },
    {
      "anonymous": false,
      "inputs": [
        {
          "indexed": true,
          "internalType": "address",
          "name": "player",
          "type": "address"
        },
        {
          "indexed": false,
          "internalType": "uint256",
          "name": "timestamp",
          "type": "uint256"
        }
      ],
      "name": "WinnerChosen",
      "type": "event"
    },
    {
      "inputs": [
        {
          "internalType": "uint16",
          "name": "_position",
          "type": "uint16"
        }
      ],
      "name": "calculateWinnings",
      "outputs": [
        {
          "internalType": "uint256",
          "name": "",
          "type": "uint256"
        }
      ],
      "stateMutability": "view",
      "type": "function"
    },
    {
      "inputs": [],
      "name": "getPrizePool",
      "outputs": [
        {
          "internalType": "uint256",
          "name": "",
          "type": "uint256"
        }
      ],
      "stateMutability": "view",
      "type": "function"
    },
    {
      "inputs": [],
      "name": "getTicketPrice",
      "outputs": [
        {
          "internalType": "uint256",
          "name": "",
          "type": "uint256"
        }
      ],
      "stateMutability": "view",
      "type": "function"
    },
    {
      "inputs": [],
      "name": "getTickets",
      "outputs": [
        {
          "internalType": "address[]",
          "name": "",
          "type": "address[]"
        }
      ],
      "stateMutability": "view",
      "type": "function"
    },
    {
      "inputs": [],
      "name": "getWinners",
      "outputs": [
        {
          "components": [
            {
              "internalType": "address",
              "name": "player",
              "type": "address"
            },
            {
              "internalType": "uint256",
              "name": "timestamp",
              "type": "uint256"
            },
            {
              "internalType": "uint256",
              "name": "winnings",
              "type": "uint256"
            }
          ],
          "internalType": "struct CryptoLottery.Winner[]",
          "name": "",
          "type": "tuple[]"
        }
      ],
      "stateMutability": "view",
      "type": "function"
    },
    {
      "inputs": [],
      "name": "owner",
      "outputs": [
        {
          "internalType": "address",
          "name": "",
          "type": "address"
        }
      ],
      "stateMutability": "view",
      "type": "function"
    },
    {
      "inputs": [
        {
          "internalType": "address payable",
          "name": "player",
          "type": "address"
        },
        {
          "internalType": "uint256",
          "name": "prizeAmount",
          "type": "uint256"
        }
      ],
      "name": "payWinner",
      "outputs": [],
      "stateMutability": "payable",
      "type": "function"
    },
    {
      "inputs": [],
      "name": "purchaseTicket",
      "outputs": [],
      "stateMutability": "payable",
      "type": "function"
    },
    {
      "inputs": [],
      "name": "renounceOwnership",
      "outputs": [],
      "stateMutability": "nonpayable",
      "type": "function"
    },
    {
      "inputs": [],
      "name": "resetTickets",
      "outputs": [],
      "stateMutability": "nonpayable",
      "type": "function"
    },
    {
      "inputs": [
        {
          "internalType": "uint256",
          "name": "newTicketPrice",
          "type": "uint256"
        }
      ],
      "name": "setTicketPrice",
      "outputs": [],
      "stateMutability": "nonpayable",
      "type": "function"
    },
    {
      "inputs": [],
      "name": "startDraw",
      "outputs": [],
      "stateMutability": "nonpayable",
      "type": "function"
    },
    {
      "inputs": [
        {
          "internalType": "address",
          "name": "newOwner",
          "type": "address"
        }
      ],
      "name": "transferOwnership",
      "outputs": [],
      "stateMutability": "nonpayable",
      "type": "function"
    }
  ],
  "bytecode": "0x6080604052662386f26fc10000600155600a6002556050600355620000396200002d6200006e60201b60201c565b6200007660201b60201c565b6200006860405180606001604052806022815260200162001ddd602291396200013a60201b62000da81760201c565b620002ce565b600033905090565b60008060009054906101000a900473ffffffffffffffffffffffffffffffffffffffff169050816000806101000a81548173ffffffffffffffffffffffffffffffffffffffff021916908373ffffffffffffffffffffffffffffffffffffffff1602179055508173ffffffffffffffffffffffffffffffffffffffff168173ffffffffffffffffffffffffffffffffffffffff167f8be0079c531659141344cd1fd0a4f28419497f9722a3daafe3b4186f6b6457e060405160405180910390a35050565b620001da8160405160240162000151919062000247565b6040516020818303038152906040527f41304fac000000000000000000000000000000000000000000000000000000007bffffffffffffffffffffffffffffffffffffffffffffffffffffffff19166020820180517bffffffffffffffffffffffffffffffffffffffffffffffffffffffff8381831617835250505050620001dd60201b60201c565b50565b60008151905060006a636f6e736f6c652e6c6f679050602083016000808483855afa5050505050565b600062000213826200026b565b6200021f818562000276565b93506200023181856020860162000287565b6200023c81620002bd565b840191505092915050565b6000602082019050818103600083015262000263818462000206565b905092915050565b600081519050919050565b600082825260208201905092915050565b60005b83811015620002a75780820151818401526020810190506200028a565b83811115620002b7576000848401525b50505050565b6000601f19601f8301169050919050565b611aff80620002de6000396000f3fe6080604052600436106100c25760003560e01c8063715018a61161007f5780638da5cb5b116100595780638da5cb5b146101dc578063961d34d714610207578063df15c37e14610244578063f2fde38b1461026f576100c2565b8063715018a61461016f57806387bb7ae014610186578063884bf67c146101b1576100c2565b806315981650146100c757806321846c76146100f05780632ae168a6146100fa5780634e958d05146101115780634ed026221461012d5780635277f28e14610158575b600080fd5b3480156100d357600080fd5b506100ee60048036038101906100e9919061118e565b610298565b005b6100f861031e565b005b34801561010657600080fd5b5061010f610415565b005b61012b60048036038101906101269190611129565b61068e565b005b34801561013957600080fd5b506101426108a6565b60405161014f91906114ad565b60405180910390f35b34801561016457600080fd5b5061016d610934565b005b34801561017b57600080fd5b50610184610a38565b005b34801561019257600080fd5b5061019b610ac0565b6040516101a89190611623565b60405180910390f35b3480156101bd57600080fd5b506101c6610aca565b6040516101d39190611623565b60405180910390f35b3480156101e857600080fd5b506101f1610aeb565b6040516101fe9190611492565b60405180910390f35b34801561021357600080fd5b5061022e60048036038101906102299190611165565b610b14565b60405161023b9190611623565b60405180910390f35b34801561025057600080fd5b50610259610be7565b60405161026691906114cf565b60405180910390f35b34801561027b57600080fd5b5061029660048036038101906102919190611100565b610cb0565b005b6102a0610e41565b73ffffffffffffffffffffffffffffffffffffffff166102be610aeb565b73ffffffffffffffffffffffffffffffffffffffff1614610314576040517f08c379a000000000000000000000000000000000000000000000000000000000815260040161030b906115a3565b60405180910390fd5b8060018190555050565b6001543414610362576040517f08c379a0000000000000000000000000000000000000000000000000000000008152600401610359906115e3565b60405180910390fd5b6004339080600181540180825580915050600190039060005260206000200160009091909190916101000a81548173ffffffffffffffffffffffffffffffffffffffff021916908373ffffffffffffffffffffffffffffffffffffffff1602179055503373ffffffffffffffffffffffffffffffffffffffff167f0668f5b446eb814fe35b3206f43f14bd8567ba04ddaf7a3ee56516929ab22ccb4260405161040b9190611623565b60405180910390a2565b61041d610e41565b73ffffffffffffffffffffffffffffffffffffffff1661043b610aeb565b73ffffffffffffffffffffffffffffffffffffffff1614610491576040517f08c379a0000000000000000000000000000000000000000000000000000000008152600401610488906115a3565b60405180910390fd5b60025460048054905010156104db576040517f08c379a00000000000000000000000000000000000000000000000000000000081526004016104d290611583565b60405180910390fd5b6000471161051e576040517f08c379a000000000000000000000000000000000000000000000000000000000815260040161051590611603565b60405180910390fd5b7fe4873708e4fc11619230dd3506a5f7cb96ece9d6d7b1c2ea9e7c46dac3f10baa4260405161054d9190611623565b60405180910390a16000600480549050610565610e49565b61056f91906117f0565b90506106146040518060400160405280601b81526020017f447261772066696e69736865642c20706c6179657220776f6e3a200000000000815250600483815481106105e4577f4e487b7100000000000000000000000000000000000000000000000000000000600052603260045260246000fd5b9060005260206000200160009054906101000a900473ffffffffffffffffffffffffffffffffffffffff16610e7c565b61068b60048281548110610651577f4e487b7100000000000000000000000000000000000000000000000000000000600052603260045260246000fd5b9060005260206000200160009054906101000a900473ffffffffffffffffffffffffffffffffffffffff166106866001610b14565b61068e565b50565b610696610e41565b73ffffffffffffffffffffffffffffffffffffffff166106b4610aeb565b73ffffffffffffffffffffffffffffffffffffffff161461070a576040517f08c379a0000000000000000000000000000000000000000000000000000000008152600401610701906115a3565b60405180910390fd5b47811061074c576040517f08c379a000000000000000000000000000000000000000000000000000000000815260040161074390611563565b60405180910390fd5b8173ffffffffffffffffffffffffffffffffffffffff167fc5d1e2a43e1052756e222065802cb80a029bfaf7045b3df42c5c87b92e48de41426040516107929190611623565b60405180910390a28173ffffffffffffffffffffffffffffffffffffffff166108fc829081150290604051600060405180830381858888f193505050501580156107e0573d6000803e3d6000fd5b50600560405180606001604052803373ffffffffffffffffffffffffffffffffffffffff16815260200142815260200183815250908060018154018082558091505060019003906000526020600020906003020160009091909190915060008201518160000160006101000a81548173ffffffffffffffffffffffffffffffffffffffff021916908373ffffffffffffffffffffffffffffffffffffffff160217905550602082015181600101556040820151816002015550506108a2610934565b5050565b6060600480548060200260200160405190810160405280929190818152602001828054801561092a57602002820191906000526020600020905b8160009054906101000a900473ffffffffffffffffffffffffffffffffffffffff1673ffffffffffffffffffffffffffffffffffffffff16815260200190600101908083116108e0575b5050505050905090565b61093c610e41565b73ffffffffffffffffffffffffffffffffffffffff1661095a610aeb565b73ffffffffffffffffffffffffffffffffffffffff16146109b0576040517f08c379a00000000000000000000000000000000000000000000000000000000081526004016109a7906115a3565b60405180910390fd5b600067ffffffffffffffff8111156109f1577f4e487b7100000000000000000000000000000000000000000000000000000000600052604160045260246000fd5b604051908082528060200260200182016040528015610a1f5781602001602082028036833780820191505090505b5060049080519060200190610a35929190611005565b50565b610a40610e41565b73ffffffffffffffffffffffffffffffffffffffff16610a5e610aeb565b73ffffffffffffffffffffffffffffffffffffffff1614610ab4576040517f08c379a0000000000000000000000000000000000000000000000000000000008152600401610aab906115a3565b60405180910390fd5b610abe6000610f18565b565b6000600154905090565b6000600354606447610adc91906116cc565b610ae691906116fd565b905090565b60008060009054906101000a900473ffffffffffffffffffffffffffffffffffffffff16905090565b600060018261ffff1610158015610b30575060038261ffff1611155b610b6f576040517f08c379a0000000000000000000000000000000000000000000000000000000008152600401610b66906115c3565b60405180910390fd5b600060018361ffff161415610b875760329050610bbf565b60028361ffff161415610b9d5760149050610bbe565b60038361ffff161415610bb357600a9050610bbd565b6000915050610be2565b5b5b806064610bca610aca565b610bd491906116cc565b610bde91906116fd565b9150505b919050565b60606005805480602002602001604051908101604052809291908181526020016000905b82821015610ca757838290600052602060002090600302016040518060600160405290816000820160009054906101000a900473ffffffffffffffffffffffffffffffffffffffff1673ffffffffffffffffffffffffffffffffffffffff1673ffffffffffffffffffffffffffffffffffffffff1681526020016001820154815260200160028201548152505081526020019060010190610c0b565b50505050905090565b610cb8610e41565b73ffffffffffffffffffffffffffffffffffffffff16610cd6610aeb565b73ffffffffffffffffffffffffffffffffffffffff1614610d2c576040517f08c379a0000000000000000000000000000000000000000000000000000000008152600401610d23906115a3565b60405180910390fd5b600073ffffffffffffffffffffffffffffffffffffffff168173ffffffffffffffffffffffffffffffffffffffff161415610d9c576040517f08c379a0000000000000000000000000000000000000000000000000000000008152600401610d9390611543565b60405180910390fd5b610da581610f18565b50565b610e3e81604051602401610dbc91906114f1565b6040516020818303038152906040527f41304fac000000000000000000000000000000000000000000000000000000007bffffffffffffffffffffffffffffffffffffffffffffffffffffffff19166020820180517bffffffffffffffffffffffffffffffffffffffffffffffffffffffff8381831617835250505050610fdc565b50565b600033905090565b60004442604051602001610e5e929190611466565b6040516020818303038152906040528051906020012060001c905090565b610f148282604051602401610e92929190611513565b6040516020818303038152906040527f319af333000000000000000000000000000000000000000000000000000000007bffffffffffffffffffffffffffffffffffffffffffffffffffffffff19166020820180517bffffffffffffffffffffffffffffffffffffffffffffffffffffffff8381831617835250505050610fdc565b5050565b60008060009054906101000a900473ffffffffffffffffffffffffffffffffffffffff169050816000806101000a81548173ffffffffffffffffffffffffffffffffffffffff021916908373ffffffffffffffffffffffffffffffffffffffff1602179055508173ffffffffffffffffffffffffffffffffffffffff168173ffffffffffffffffffffffffffffffffffffffff167f8be0079c531659141344cd1fd0a4f28419497f9722a3daafe3b4186f6b6457e060405160405180910390a35050565b60008151905060006a636f6e736f6c652e6c6f679050602083016000808483855afa5050505050565b82805482825590600052602060002090810192821561107e579160200282015b8281111561107d5782518260006101000a81548173ffffffffffffffffffffffffffffffffffffffff021916908373ffffffffffffffffffffffffffffffffffffffff16021790555091602001919060010190611025565b5b50905061108b919061108f565b5090565b5b808211156110a8576000816000905550600101611090565b5090565b6000813590506110bb81611a6d565b92915050565b6000813590506110d081611a84565b92915050565b6000813590506110e581611a9b565b92915050565b6000813590506110fa81611ab2565b92915050565b60006020828403121561111257600080fd5b6000611120848285016110ac565b91505092915050565b6000806040838503121561113c57600080fd5b600061114a858286016110c1565b925050602061115b858286016110eb565b9150509250929050565b60006020828403121561117757600080fd5b6000611185848285016110d6565b91505092915050565b6000602082840312156111a057600080fd5b60006111ae848285016110eb565b91505092915050565b60006111c383836111e7565b60208301905092915050565b60006111db83836113ef565b60608301905092915050565b6111f081611757565b82525050565b6111ff81611757565b82525050565b60006112108261165e565b61121a8185611699565b93506112258361163e565b8060005b8381101561125657815161123d88826111b7565b97506112488361167f565b925050600181019050611229565b5085935050505092915050565b600061126e82611669565b61127881856116aa565b93506112838361164e565b8060005b838110156112b457815161129b88826111cf565b97506112a68361168c565b925050600181019050611287565b5085935050505092915050565b60006112cc82611674565b6112d681856116bb565b93506112e68185602086016117b3565b6112ef8161187f565b840191505092915050565b60006113076026836116bb565b915061131282611890565b604082019050919050565b600061132a6030836116bb565b9150611335826118df565b604082019050919050565b600061134d6033836116bb565b91506113588261192e565b604082019050919050565b60006113706020836116bb565b915061137b8261197d565b602082019050919050565b6000611393602c836116bb565b915061139e826119a6565b604082019050919050565b60006113b6601d836116bb565b91506113c1826119f5565b602082019050919050565b60006113d96033836116bb565b91506113e482611a1e565b604082019050919050565b60608201600082015161140560008501826111e7565b5060208201516114186020850182611431565b50604082015161142b6040850182611431565b50505050565b61143a816117a9565b82525050565b611449816117a9565b82525050565b61146061145b826117a9565b6117e6565b82525050565b6000611472828561144f565b602082019150611482828461144f565b6020820191508190509392505050565b60006020820190506114a760008301846111f6565b92915050565b600060208201905081810360008301526114c78184611205565b905092915050565b600060208201905081810360008301526114e98184611263565b905092915050565b6000602082019050818103600083015261150b81846112c1565b905092915050565b6000604082019050818103600083015261152d81856112c1565b905061153c60208301846111f6565b9392505050565b6000602082019050818103600083015261155c816112fa565b9050919050565b6000602082019050818103600083015261157c8161131d565b9050919050565b6000602082019050818103600083015261159c81611340565b9050919050565b600060208201905081810360008301526115bc81611363565b9050919050565b600060208201905081810360008301526115dc81611386565b9050919050565b600060208201905081810360008301526115fc816113a9565b9050919050565b6000602082019050818103600083015261161c816113cc565b9050919050565b60006020820190506116386000830184611440565b92915050565b6000819050602082019050919050565b6000819050602082019050919050565b600081519050919050565b600081519050919050565b600081519050919050565b6000602082019050919050565b6000602082019050919050565b600082825260208201905092915050565b600082825260208201905092915050565b600082825260208201905092915050565b60006116d7826117a9565b91506116e2836117a9565b9250826116f2576116f1611850565b5b828204905092915050565b6000611708826117a9565b9150611713836117a9565b9250817fffffffffffffffffffffffffffffffffffffffffffffffffffffffffffffffff048311821515161561174c5761174b611821565b5b828202905092915050565b600061176282611789565b9050919050565b600061177482611789565b9050919050565b600061ffff82169050919050565b600073ffffffffffffffffffffffffffffffffffffffff82169050919050565b6000819050919050565b60005b838110156117d15780820151818401526020810190506117b6565b838111156117e0576000848401525b50505050565b6000819050919050565b60006117fb826117a9565b9150611806836117a9565b92508261181657611815611850565b5b828206905092915050565b7f4e487b7100000000000000000000000000000000000000000000000000000000600052601160045260246000fd5b7f4e487b7100000000000000000000000000000000000000000000000000000000600052601260045260246000fd5b6000601f19601f8301169050919050565b7f4f776e61626c653a206e6577206f776e657220697320746865207a65726f206160008201527f6464726573730000000000000000000000000000000000000000000000000000602082015250565b7f57696e6e65722063616e6e6f742077696e206d6f7265207468616e207468652060008201527f636f6e74726163742062616c616e636500000000000000000000000000000000602082015250565b7f5468657265206e6565647320746f206265206174206c6561737420313020706c60008201527f617965727320746f2072756e2061206472617700000000000000000000000000602082015250565b7f4f776e61626c653a2063616c6c6572206973206e6f7420746865206f776e6572600082015250565b7f57696e6e696e6720706f736974696f6e73206d7573742062652077697468696e60008201527f206120312d332072616e67650000000000000000000000000000000000000000602082015250565b7f596f75206d7573742070617920746865207469636b6574207072696365000000600082015250565b7f4120647261772063616e6e6f742062652072756e207768656e2074686520636f60008201527f6e74726163742062616c616e6365206973203000000000000000000000000000602082015250565b611a7681611757565b8114611a8157600080fd5b50565b611a8d81611769565b8114611a9857600080fd5b50565b611aa48161177b565b8114611aaf57600080fd5b50565b611abb816117a9565b8114611ac657600080fd5b5056fea2646970667358221220367f672cf1cadf9c0aa37f87289655947c9df591f11335fdc019cf1b654a44aa64736f6c63430008040033436f6e7472616374206d6574686f6420636f6e7374727563746f722063616c6c6564",
  "linkReferences": {},
  "deployedLinkReferences": {}
}