{
  "_format": "hh-sol-artifact-1",
  "contractName": "CryptoLottery",
  "sourceName": "contracts/CryptoLottery.sol",
  "abi": [
    {
      "inputs": [],
      "stateMutability": "payable",
      "type": "constructor"
    },
    {
      "anonymous": false,
      "inputs": [
        {
          "indexed": false,
          "internalType": "uint256",
          "name": "timestamp",
          "type": "uint256"
        }
      ],
      "name": "DrawStarted",
      "type": "event"
    },
    {
      "anonymous": false,
      "inputs": [
        {
          "indexed": true,
          "internalType": "address",
          "name": "previousOwner",
          "type": "address"
        },
        {
          "indexed": true,
          "internalType": "address",
          "name": "newOwner",
          "type": "address"
        }
      ],
      "name": "OwnershipTransferred",
      "type": "event"
    },
    {
      "anonymous": false,
      "inputs": [
        {
          "indexed": true,
          "internalType": "address",
          "name": "from",
          "type": "address"
        },
        {
          "indexed": false,
          "internalType": "uint256",
          "name": "timestamp",
          "type": "uint256"
        }
      ],
      "name": "TicketPurchased",
      "type": "event"
    },
    {
      "anonymous": false,
      "inputs": [
        {
          "indexed": true,
          "internalType": "address",
          "name": "player",
          "type": "address"
        },
        {
          "indexed": false,
          "internalType": "uint256",
          "name": "timestamp",
          "type": "uint256"
        }
      ],
      "name": "WinnerChosen",
      "type": "event"
    },
    {
      "inputs": [
        {
          "internalType": "uint16",
          "name": "_position",
          "type": "uint16"
        }
      ],
      "name": "calculateWinnings",
      "outputs": [
        {
          "internalType": "uint256",
          "name": "",
          "type": "uint256"
        }
      ],
      "stateMutability": "view",
      "type": "function"
    },
    {
      "inputs": [],
      "name": "getPrizePool",
      "outputs": [
        {
          "internalType": "uint256",
          "name": "",
          "type": "uint256"
        }
      ],
      "stateMutability": "view",
      "type": "function"
    },
    {
      "inputs": [],
      "name": "getTicketPrice",
      "outputs": [
        {
          "internalType": "uint256",
          "name": "",
          "type": "uint256"
        }
      ],
      "stateMutability": "view",
      "type": "function"
    },
    {
      "inputs": [],
      "name": "getTickets",
      "outputs": [
        {
          "internalType": "address[]",
          "name": "",
          "type": "address[]"
        }
      ],
      "stateMutability": "view",
      "type": "function"
    },
    {
      "inputs": [],
      "name": "getWinners",
      "outputs": [
        {
          "components": [
            {
              "internalType": "address",
              "name": "plaer",
              "type": "address"
            },
            {
              "internalType": "uint256",
              "name": "timestamp",
              "type": "uint256"
            },
            {
              "internalType": "uint256",
              "name": "winnings",
              "type": "uint256"
            }
          ],
          "internalType": "struct CryptoLottery.Winner[]",
          "name": "",
          "type": "tuple[]"
        }
      ],
      "stateMutability": "view",
      "type": "function"
    },
    {
      "inputs": [],
      "name": "owner",
      "outputs": [
        {
          "internalType": "address",
          "name": "",
          "type": "address"
        }
      ],
      "stateMutability": "view",
      "type": "function"
    },
    {
      "inputs": [
        {
          "internalType": "address payable",
          "name": "player",
          "type": "address"
        },
        {
          "internalType": "uint256",
          "name": "prizeAmount",
          "type": "uint256"
        }
      ],
      "name": "payWinner",
      "outputs": [],
      "stateMutability": "payable",
      "type": "function"
    },
    {
      "inputs": [],
      "name": "purchaseTicket",
      "outputs": [],
      "stateMutability": "payable",
      "type": "function"
    },
    {
      "inputs": [],
      "name": "renounceOwnership",
      "outputs": [],
      "stateMutability": "nonpayable",
      "type": "function"
    },
    {
      "inputs": [],
      "name": "resetTickets",
      "outputs": [],
      "stateMutability": "nonpayable",
      "type": "function"
    },
    {
      "inputs": [
        {
          "internalType": "uint256",
          "name": "newTicketPrice",
          "type": "uint256"
        }
      ],
      "name": "setTicketPrice",
      "outputs": [],
      "stateMutability": "nonpayable",
      "type": "function"
    },
    {
      "inputs": [],
      "name": "startDraw",
      "outputs": [],
      "stateMutability": "nonpayable",
      "type": "function"
    },
    {
      "inputs": [
        {
          "internalType": "address",
          "name": "newOwner",
          "type": "address"
        }
      ],
      "name": "transferOwnership",
      "outputs": [],
      "stateMutability": "nonpayable",
      "type": "function"
    }
  ],
  "bytecode": "0x6080604052662386f26fc10000600155600a60025560326003556014600455600a6005556050600655620000486200003c6200007d60201b60201c565b6200008560201b60201c565b6200007760405180606001604052806022815260200162001def602291396200014960201b62000dab1760201c565b620002dd565b600033905090565b60008060009054906101000a900473ffffffffffffffffffffffffffffffffffffffff169050816000806101000a81548173ffffffffffffffffffffffffffffffffffffffff021916908373ffffffffffffffffffffffffffffffffffffffff1602179055508173ffffffffffffffffffffffffffffffffffffffff168173ffffffffffffffffffffffffffffffffffffffff167f8be0079c531659141344cd1fd0a4f28419497f9722a3daafe3b4186f6b6457e060405160405180910390a35050565b620001e98160405160240162000160919062000256565b6040516020818303038152906040527f41304fac000000000000000000000000000000000000000000000000000000007bffffffffffffffffffffffffffffffffffffffffffffffffffffffff19166020820180517bffffffffffffffffffffffffffffffffffffffffffffffffffffffff8381831617835250505050620001ec60201b60201c565b50565b60008151905060006a636f6e736f6c652e6c6f679050602083016000808483855afa5050505050565b600062000222826200027a565b6200022e818562000285565b93506200024081856020860162000296565b6200024b81620002cc565b840191505092915050565b6000602082019050818103600083015262000272818462000215565b905092915050565b600081519050919050565b600082825260208201905092915050565b60005b83811015620002b657808201518184015260208101905062000299565b83811115620002c6576000848401525b50505050565b6000601f19601f8301169050919050565b611b0280620002ed6000396000f3fe6080604052600436106100c25760003560e01c8063715018a61161007f5780638da5cb5b116100595780638da5cb5b146101dc578063961d34d714610207578063df15c37e14610244578063f2fde38b1461026f576100c2565b8063715018a61461016f57806387bb7ae014610186578063884bf67c146101b1576100c2565b806315981650146100c757806321846c76146100f05780632ae168a6146100fa5780634e958d05146101115780634ed026221461012d5780635277f28e14610158575b600080fd5b3480156100d357600080fd5b506100ee60048036038101906100e99190611191565b610298565b005b6100f861031e565b005b34801561010657600080fd5b5061010f610415565b005b61012b6004803603810190610126919061112c565b61068e565b005b34801561013957600080fd5b506101426108a6565b60405161014f91906114b0565b60405180910390f35b34801561016457600080fd5b5061016d610934565b005b34801561017b57600080fd5b50610184610a38565b005b34801561019257600080fd5b5061019b610ac0565b6040516101a89190611626565b60405180910390f35b3480156101bd57600080fd5b506101c6610aca565b6040516101d39190611626565b60405180910390f35b3480156101e857600080fd5b506101f1610aeb565b6040516101fe9190611495565b60405180910390f35b34801561021357600080fd5b5061022e60048036038101906102299190611168565b610b14565b60405161023b9190611626565b60405180910390f35b34801561025057600080fd5b50610259610bea565b60405161026691906114d2565b60405180910390f35b34801561027b57600080fd5b5061029660048036038101906102919190611103565b610cb3565b005b6102a0610e44565b73ffffffffffffffffffffffffffffffffffffffff166102be610aeb565b73ffffffffffffffffffffffffffffffffffffffff1614610314576040517f08c379a000000000000000000000000000000000000000000000000000000000815260040161030b906115a6565b60405180910390fd5b8060018190555050565b6001543414610362576040517f08c379a0000000000000000000000000000000000000000000000000000000008152600401610359906115e6565b60405180910390fd5b6007339080600181540180825580915050600190039060005260206000200160009091909190916101000a81548173ffffffffffffffffffffffffffffffffffffffff021916908373ffffffffffffffffffffffffffffffffffffffff1602179055503373ffffffffffffffffffffffffffffffffffffffff167f0668f5b446eb814fe35b3206f43f14bd8567ba04ddaf7a3ee56516929ab22ccb4260405161040b9190611626565b60405180910390a2565b61041d610e44565b73ffffffffffffffffffffffffffffffffffffffff1661043b610aeb565b73ffffffffffffffffffffffffffffffffffffffff1614610491576040517f08c379a0000000000000000000000000000000000000000000000000000000008152600401610488906115a6565b60405180910390fd5b60025460078054905010156104db576040517f08c379a00000000000000000000000000000000000000000000000000000000081526004016104d290611586565b60405180910390fd5b6000471161051e576040517f08c379a000000000000000000000000000000000000000000000000000000000815260040161051590611606565b60405180910390fd5b7fe4873708e4fc11619230dd3506a5f7cb96ece9d6d7b1c2ea9e7c46dac3f10baa4260405161054d9190611626565b60405180910390a16000600780549050610565610e4c565b61056f91906117f3565b90506106146040518060400160405280601b81526020017f447261772066696e69736865642c20706c6179657220776f6e3a200000000000815250600783815481106105e4577f4e487b7100000000000000000000000000000000000000000000000000000000600052603260045260246000fd5b9060005260206000200160009054906101000a900473ffffffffffffffffffffffffffffffffffffffff16610e7f565b61068b60078281548110610651577f4e487b7100000000000000000000000000000000000000000000000000000000600052603260045260246000fd5b9060005260206000200160009054906101000a900473ffffffffffffffffffffffffffffffffffffffff166106866001610b14565b61068e565b50565b610696610e44565b73ffffffffffffffffffffffffffffffffffffffff166106b4610aeb565b73ffffffffffffffffffffffffffffffffffffffff161461070a576040517f08c379a0000000000000000000000000000000000000000000000000000000008152600401610701906115a6565b60405180910390fd5b47811061074c576040517f08c379a000000000000000000000000000000000000000000000000000000000815260040161074390611566565b60405180910390fd5b8173ffffffffffffffffffffffffffffffffffffffff167fc5d1e2a43e1052756e222065802cb80a029bfaf7045b3df42c5c87b92e48de41426040516107929190611626565b60405180910390a28173ffffffffffffffffffffffffffffffffffffffff166108fc829081150290604051600060405180830381858888f193505050501580156107e0573d6000803e3d6000fd5b50600860405180606001604052803373ffffffffffffffffffffffffffffffffffffffff16815260200142815260200183815250908060018154018082558091505060019003906000526020600020906003020160009091909190915060008201518160000160006101000a81548173ffffffffffffffffffffffffffffffffffffffff021916908373ffffffffffffffffffffffffffffffffffffffff160217905550602082015181600101556040820151816002015550506108a2610934565b5050565b6060600780548060200260200160405190810160405280929190818152602001828054801561092a57602002820191906000526020600020905b8160009054906101000a900473ffffffffffffffffffffffffffffffffffffffff1673ffffffffffffffffffffffffffffffffffffffff16815260200190600101908083116108e0575b5050505050905090565b61093c610e44565b73ffffffffffffffffffffffffffffffffffffffff1661095a610aeb565b73ffffffffffffffffffffffffffffffffffffffff16146109b0576040517f08c379a00000000000000000000000000000000000000000000000000000000081526004016109a7906115a6565b60405180910390fd5b600067ffffffffffffffff8111156109f1577f4e487b7100000000000000000000000000000000000000000000000000000000600052604160045260246000fd5b604051908082528060200260200182016040528015610a1f5781602001602082028036833780820191505090505b5060079080519060200190610a35929190611008565b50565b610a40610e44565b73ffffffffffffffffffffffffffffffffffffffff16610a5e610aeb565b73ffffffffffffffffffffffffffffffffffffffff1614610ab4576040517f08c379a0000000000000000000000000000000000000000000000000000000008152600401610aab906115a6565b60405180910390fd5b610abe6000610f1b565b565b6000600154905090565b6000600654606447610adc91906116cf565b610ae69190611700565b905090565b60008060009054906101000a900473ffffffffffffffffffffffffffffffffffffffff16905090565b600060018261ffff1610158015610b30575060038261ffff1611155b610b6f576040517f08c379a0000000000000000000000000000000000000000000000000000000008152600401610b66906115c6565b60405180910390fd5b600060018361ffff161415610b88576003549050610bc2565b60028361ffff161415610b9f576004549050610bc1565b60038361ffff161415610bb6576005549050610bc0565b6000915050610be5565b5b5b806064610bcd610aca565b610bd791906116cf565b610be19190611700565b9150505b919050565b60606008805480602002602001604051908101604052809291908181526020016000905b82821015610caa57838290600052602060002090600302016040518060600160405290816000820160009054906101000a900473ffffffffffffffffffffffffffffffffffffffff1673ffffffffffffffffffffffffffffffffffffffff1673ffffffffffffffffffffffffffffffffffffffff1681526020016001820154815260200160028201548152505081526020019060010190610c0e565b50505050905090565b610cbb610e44565b73ffffffffffffffffffffffffffffffffffffffff16610cd9610aeb565b73ffffffffffffffffffffffffffffffffffffffff1614610d2f576040517f08c379a0000000000000000000000000000000000000000000000000000000008152600401610d26906115a6565b60405180910390fd5b600073ffffffffffffffffffffffffffffffffffffffff168173ffffffffffffffffffffffffffffffffffffffff161415610d9f576040517f08c379a0000000000000000000000000000000000000000000000000000000008152600401610d9690611546565b60405180910390fd5b610da881610f1b565b50565b610e4181604051602401610dbf91906114f4565b6040516020818303038152906040527f41304fac000000000000000000000000000000000000000000000000000000007bffffffffffffffffffffffffffffffffffffffffffffffffffffffff19166020820180517bffffffffffffffffffffffffffffffffffffffffffffffffffffffff8381831617835250505050610fdf565b50565b600033905090565b60004442604051602001610e61929190611469565b6040516020818303038152906040528051906020012060001c905090565b610f178282604051602401610e95929190611516565b6040516020818303038152906040527f319af333000000000000000000000000000000000000000000000000000000007bffffffffffffffffffffffffffffffffffffffffffffffffffffffff19166020820180517bffffffffffffffffffffffffffffffffffffffffffffffffffffffff8381831617835250505050610fdf565b5050565b60008060009054906101000a900473ffffffffffffffffffffffffffffffffffffffff169050816000806101000a81548173ffffffffffffffffffffffffffffffffffffffff021916908373ffffffffffffffffffffffffffffffffffffffff1602179055508173ffffffffffffffffffffffffffffffffffffffff168173ffffffffffffffffffffffffffffffffffffffff167f8be0079c531659141344cd1fd0a4f28419497f9722a3daafe3b4186f6b6457e060405160405180910390a35050565b60008151905060006a636f6e736f6c652e6c6f679050602083016000808483855afa5050505050565b828054828255906000526020600020908101928215611081579160200282015b828111156110805782518260006101000a81548173ffffffffffffffffffffffffffffffffffffffff021916908373ffffffffffffffffffffffffffffffffffffffff16021790555091602001919060010190611028565b5b50905061108e9190611092565b5090565b5b808211156110ab576000816000905550600101611093565b5090565b6000813590506110be81611a70565b92915050565b6000813590506110d381611a87565b92915050565b6000813590506110e881611a9e565b92915050565b6000813590506110fd81611ab5565b92915050565b60006020828403121561111557600080fd5b6000611123848285016110af565b91505092915050565b6000806040838503121561113f57600080fd5b600061114d858286016110c4565b925050602061115e858286016110ee565b9150509250929050565b60006020828403121561117a57600080fd5b6000611188848285016110d9565b91505092915050565b6000602082840312156111a357600080fd5b60006111b1848285016110ee565b91505092915050565b60006111c683836111ea565b60208301905092915050565b60006111de83836113f2565b60608301905092915050565b6111f38161175a565b82525050565b6112028161175a565b82525050565b600061121382611661565b61121d818561169c565b935061122883611641565b8060005b8381101561125957815161124088826111ba565b975061124b83611682565b92505060018101905061122c565b5085935050505092915050565b60006112718261166c565b61127b81856116ad565b935061128683611651565b8060005b838110156112b757815161129e88826111d2565b97506112a98361168f565b92505060018101905061128a565b5085935050505092915050565b60006112cf82611677565b6112d981856116be565b93506112e98185602086016117b6565b6112f281611882565b840191505092915050565b600061130a6026836116be565b915061131582611893565b604082019050919050565b600061132d6030836116be565b9150611338826118e2565b604082019050919050565b60006113506033836116be565b915061135b82611931565b604082019050919050565b60006113736020836116be565b915061137e82611980565b602082019050919050565b6000611396602c836116be565b91506113a1826119a9565b604082019050919050565b60006113b9601d836116be565b91506113c4826119f8565b602082019050919050565b60006113dc6033836116be565b91506113e782611a21565b604082019050919050565b60608201600082015161140860008501826111ea565b50602082015161141b6020850182611434565b50604082015161142e6040850182611434565b50505050565b61143d816117ac565b82525050565b61144c816117ac565b82525050565b61146361145e826117ac565b6117e9565b82525050565b60006114758285611452565b6020820191506114858284611452565b6020820191508190509392505050565b60006020820190506114aa60008301846111f9565b92915050565b600060208201905081810360008301526114ca8184611208565b905092915050565b600060208201905081810360008301526114ec8184611266565b905092915050565b6000602082019050818103600083015261150e81846112c4565b905092915050565b6000604082019050818103600083015261153081856112c4565b905061153f60208301846111f9565b9392505050565b6000602082019050818103600083015261155f816112fd565b9050919050565b6000602082019050818103600083015261157f81611320565b9050919050565b6000602082019050818103600083015261159f81611343565b9050919050565b600060208201905081810360008301526115bf81611366565b9050919050565b600060208201905081810360008301526115df81611389565b9050919050565b600060208201905081810360008301526115ff816113ac565b9050919050565b6000602082019050818103600083015261161f816113cf565b9050919050565b600060208201905061163b6000830184611443565b92915050565b6000819050602082019050919050565b6000819050602082019050919050565b600081519050919050565b600081519050919050565b600081519050919050565b6000602082019050919050565b6000602082019050919050565b600082825260208201905092915050565b600082825260208201905092915050565b600082825260208201905092915050565b60006116da826117ac565b91506116e5836117ac565b9250826116f5576116f4611853565b5b828204905092915050565b600061170b826117ac565b9150611716836117ac565b9250817fffffffffffffffffffffffffffffffffffffffffffffffffffffffffffffffff048311821515161561174f5761174e611824565b5b828202905092915050565b60006117658261178c565b9050919050565b60006117778261178c565b9050919050565b600061ffff82169050919050565b600073ffffffffffffffffffffffffffffffffffffffff82169050919050565b6000819050919050565b60005b838110156117d45780820151818401526020810190506117b9565b838111156117e3576000848401525b50505050565b6000819050919050565b60006117fe826117ac565b9150611809836117ac565b92508261181957611818611853565b5b828206905092915050565b7f4e487b7100000000000000000000000000000000000000000000000000000000600052601160045260246000fd5b7f4e487b7100000000000000000000000000000000000000000000000000000000600052601260045260246000fd5b6000601f19601f8301169050919050565b7f4f776e61626c653a206e6577206f776e657220697320746865207a65726f206160008201527f6464726573730000000000000000000000000000000000000000000000000000602082015250565b7f57696e6e65722063616e6e6f742077696e206d6f7265207468616e207468652060008201527f636f6e74726163742062616c616e636500000000000000000000000000000000602082015250565b7f5468657265206e6565647320746f206265206174206c6561737420313020706c60008201527f617965727320746f2072756e2061206472617700000000000000000000000000602082015250565b7f4f776e61626c653a2063616c6c6572206973206e6f7420746865206f776e6572600082015250565b7f57696e6e696e6720706f736974696f6e73206d7573742062652077697468696e60008201527f206120312d332072616e67650000000000000000000000000000000000000000602082015250565b7f596f75206d7573742070617920746865207469636b6574207072696365000000600082015250565b7f4120647261772063616e6e6f742062652072756e207768656e2074686520636f60008201527f6e74726163742062616c616e6365206973203000000000000000000000000000602082015250565b611a798161175a565b8114611a8457600080fd5b50565b611a908161176c565b8114611a9b57600080fd5b50565b611aa78161177e565b8114611ab257600080fd5b50565b611abe816117ac565b8114611ac957600080fd5b5056fea2646970667358221220b16454f3001c19abf71b39da9a7de9641942bc49b2f173d553a085c4c8df6d0164736f6c63430008040033436f6e7472616374206d6574686f6420636f6e7374727563746f722063616c6c6564",
  "linkReferences": {},
  "deployedLinkReferences": {}
}